{
  "_format": "hh-sol-artifact-1",
  "contractName": "BondingCurve",
  "sourceName": "contracts/BondingCurve.sol",
  "abi": [
    {
      "inputs": [
        {
          "internalType": "address",
          "name": "_bondedToken",
          "type": "address"
        },
        {
          "internalType": "address",
          "name": "_collateralToken",
          "type": "address"
        }
      ],
      "stateMutability": "nonpayable",
      "type": "constructor"
    },
    {
      "anonymous": false,
      "inputs": [
        {
          "indexed": true,
          "internalType": "address",
          "name": "previousOwner",
          "type": "address"
        },
        {
          "indexed": true,
          "internalType": "address",
          "name": "newOwner",
          "type": "address"
        }
      ],
      "name": "OwnershipTransferred",
      "type": "event"
    },
    {
      "anonymous": false,
      "inputs": [
        {
          "indexed": true,
          "internalType": "address",
          "name": "seller",
          "type": "address"
        },
        {
          "indexed": false,
          "internalType": "uint256",
          "name": "amount",
          "type": "uint256"
        },
        {
          "indexed": false,
          "internalType": "uint256",
          "name": "rewardReceived",
          "type": "uint256"
        },
        {
          "indexed": false,
          "internalType": "uint256",
          "name": "minReward",
          "type": "uint256"
        }
      ],
      "name": "burnTokens",
      "type": "event"
    },
    {
      "anonymous": false,
      "inputs": [
        {
          "indexed": true,
          "internalType": "address",
          "name": "buyer",
          "type": "address"
        },
        {
          "indexed": false,
          "internalType": "uint256",
          "name": "amount",
          "type": "uint256"
        },
        {
          "indexed": false,
          "internalType": "uint256",
          "name": "pricePaid",
          "type": "uint256"
        },
        {
          "indexed": false,
          "internalType": "uint256",
          "name": "maxSpend",
          "type": "uint256"
        }
      ],
      "name": "mintTokens",
      "type": "event"
    },
    {
      "anonymous": false,
      "inputs": [
        {
          "indexed": true,
          "internalType": "address",
          "name": "buyer",
          "type": "address"
        },
        {
          "indexed": true,
          "internalType": "address",
          "name": "receiver",
          "type": "address"
        },
        {
          "indexed": false,
          "internalType": "uint256",
          "name": "amount",
          "type": "uint256"
        },
        {
          "indexed": false,
          "internalType": "uint256",
          "name": "pricePaid",
          "type": "uint256"
        },
        {
          "indexed": false,
          "internalType": "uint256",
          "name": "maxSpend",
          "type": "uint256"
        }
      ],
      "name": "mintTokensTo",
      "type": "event"
    },
    {
      "anonymous": false,
      "inputs": [
        {
          "indexed": true,
          "internalType": "address",
          "name": "owner",
          "type": "address"
        }
      ],
      "name": "shutDownOccurred",
      "type": "event"
    },
    {
      "inputs": [],
      "name": "bondedToken",
      "outputs": [
        {
          "internalType": "address",
          "name": "",
          "type": "address"
        }
      ],
      "stateMutability": "view",
      "type": "function"
    },
    {
      "inputs": [
        {
          "internalType": "uint256",
          "name": "_bzzAmount",
          "type": "uint256"
        }
      ],
      "name": "burnBzz",
      "outputs": [],
      "stateMutability": "nonpayable",
      "type": "function"
    },
    {
      "inputs": [
        {
          "internalType": "uint256",
          "name": "daiAmount",
          "type": "uint256"
        }
      ],
      "name": "buyBzz",
      "outputs": [
        {
          "internalType": "uint256",
          "name": "",
          "type": "uint256"
        }
      ],
      "stateMutability": "view",
      "type": "function"
    },
    {
      "inputs": [
        {
          "internalType": "uint256",
          "name": "_amount",
          "type": "uint256"
        }
      ],
      "name": "buyPrice",
      "outputs": [
        {
          "internalType": "uint256",
          "name": "collateralRequired",
          "type": "uint256"
        }
      ],
      "stateMutability": "view",
      "type": "function"
    },
    {
      "inputs": [
        {
          "internalType": "uint256",
          "name": "_amount",
          "type": "uint256"
        },
        {
          "internalType": "uint256",
          "name": "_minCollateralReward",
          "type": "uint256"
        }
      ],
      "name": "claimDAI",
      "outputs": [
        {
          "internalType": "bool",
          "name": "success",
          "type": "bool"
        }
      ],
      "stateMutability": "nonpayable",
      "type": "function"
    },
    {
      "inputs": [],
      "name": "collateralToken",
      "outputs": [
        {
          "internalType": "address",
          "name": "",
          "type": "address"
        }
      ],
      "stateMutability": "view",
      "type": "function"
    },
    {
      "inputs": [
        {
          "internalType": "uint256",
          "name": "daiAmount",
          "type": "uint256"
        }
      ],
      "name": "depositDai",
      "outputs": [],
      "stateMutability": "nonpayable",
      "type": "function"
    },
    {
      "inputs": [
        {
          "internalType": "uint256",
          "name": "_x",
          "type": "uint256"
        }
      ],
      "name": "helper",
      "outputs": [
        {
          "internalType": "uint256",
          "name": "",
          "type": "uint256"
        }
      ],
      "stateMutability": "pure",
      "type": "function"
    },
    {
      "inputs": [],
      "name": "init",
      "outputs": [],
      "stateMutability": "nonpayable",
      "type": "function"
    },
    {
      "inputs": [],
      "name": "isCurveActive",
      "outputs": [
        {
          "internalType": "bool",
          "name": "",
          "type": "bool"
        }
      ],
      "stateMutability": "view",
      "type": "function"
    },
    {
      "inputs": [
        {
          "internalType": "uint256",
          "name": "_amount",
          "type": "uint256"
        },
        {
          "internalType": "uint256",
          "name": "_currentSupply",
          "type": "uint256"
        }
      ],
      "name": "mathMint",
      "outputs": [
        {
          "internalType": "uint256",
          "name": "",
          "type": "uint256"
        }
      ],
      "stateMutability": "pure",
      "type": "function"
    },
    {
      "inputs": [
        {
          "internalType": "uint256",
          "name": "_amount",
          "type": "uint256"
        },
        {
          "internalType": "uint256",
          "name": "_maxCollateralSpend",
          "type": "uint256"
        }
      ],
      "name": "mint",
      "outputs": [
        {
          "internalType": "bool",
          "name": "success",
          "type": "bool"
        }
      ],
      "stateMutability": "nonpayable",
      "type": "function"
    },
    {
      "inputs": [
        {
          "internalType": "uint256",
          "name": "_amount",
          "type": "uint256"
        },
        {
          "internalType": "uint256",
          "name": "_maxCollateralSpend",
          "type": "uint256"
        },
        {
          "internalType": "address",
          "name": "_to",
          "type": "address"
        }
      ],
      "name": "mintTo",
      "outputs": [
        {
          "internalType": "bool",
          "name": "success",
          "type": "bool"
        }
      ],
      "stateMutability": "nonpayable",
      "type": "function"
    },
    {
      "inputs": [],
      "name": "owner",
      "outputs": [
        {
          "internalType": "address",
          "name": "",
          "type": "address"
        }
      ],
      "stateMutability": "view",
      "type": "function"
    },
    {
      "inputs": [
        {
          "internalType": "uint256",
          "name": "_s",
          "type": "uint256"
        }
      ],
      "name": "primitiveFunction",
      "outputs": [
        {
          "internalType": "uint256",
          "name": "",
          "type": "uint256"
        }
      ],
      "stateMutability": "pure",
      "type": "function"
    },
    {
      "inputs": [
        {
          "internalType": "uint256",
          "name": "_amount",
          "type": "uint256"
        },
        {
          "internalType": "uint256",
          "name": "_minCollateralReward",
          "type": "uint256"
        }
      ],
      "name": "redeem",
      "outputs": [
        {
          "internalType": "bool",
          "name": "success",
          "type": "bool"
        }
      ],
      "stateMutability": "nonpayable",
      "type": "function"
    },
    {
      "inputs": [],
      "name": "renounceOwnership",
      "outputs": [],
      "stateMutability": "nonpayable",
      "type": "function"
    },
    {
      "inputs": [
        {
          "internalType": "uint256",
          "name": "_initialSupply",
          "type": "uint256"
        }
      ],
      "name": "requiredCollateral",
      "outputs": [
        {
          "internalType": "uint256",
          "name": "",
          "type": "uint256"
        }
      ],
      "stateMutability": "pure",
      "type": "function"
    },
    {
      "inputs": [
        {
          "internalType": "uint256",
          "name": "_amount",
          "type": "uint256"
        }
      ],
      "name": "sellReward",
      "outputs": [
        {
          "internalType": "uint256",
          "name": "collateralReward",
          "type": "uint256"
        }
      ],
      "stateMutability": "view",
      "type": "function"
    },
    {
      "inputs": [],
      "name": "shutDown",
      "outputs": [],
      "stateMutability": "nonpayable",
      "type": "function"
    },
    {
      "inputs": [
        {
          "internalType": "uint256",
          "name": "_supply",
          "type": "uint256"
        }
      ],
      "name": "spotPrice",
      "outputs": [
        {
          "internalType": "uint256",
          "name": "",
          "type": "uint256"
        }
      ],
      "stateMutability": "pure",
      "type": "function"
    },
    {
      "inputs": [
        {
          "internalType": "address",
          "name": "newOwner",
          "type": "address"
        }
      ],
      "name": "transferOwnership",
      "outputs": [],
      "stateMutability": "nonpayable",
      "type": "function"
    },
    {
      "inputs": [
        {
          "internalType": "uint256",
          "name": "_amount",
          "type": "uint256"
        },
        {
          "internalType": "uint256",
          "name": "_currentSupply",
          "type": "uint256"
        }
      ],
      "name": "withdraw",
      "outputs": [
        {
          "internalType": "uint256",
          "name": "",
          "type": "uint256"
        },
        {
          "internalType": "uint256",
          "name": "",
          "type": "uint256"
        }
      ],
      "stateMutability": "pure",
      "type": "function"
    },
    {
      "stateMutability": "payable",
      "type": "receive"
    }
  ],
  "bytecode": "0x60806040523480156200001157600080fd5b5060405162002c0538038062002c0583398181016040528101906200003791906200021f565b620000576200004b620000e960201b60201c565b620000f160201b60201c565b81600160006101000a81548173ffffffffffffffffffffffffffffffffffffffff021916908373ffffffffffffffffffffffffffffffffffffffff16021790555080600260006101000a81548173ffffffffffffffffffffffffffffffffffffffff021916908373ffffffffffffffffffffffffffffffffffffffff1602179055506001600381905550505062000266565b600033905090565b60008060009054906101000a900473ffffffffffffffffffffffffffffffffffffffff169050816000806101000a81548173ffffffffffffffffffffffffffffffffffffffff021916908373ffffffffffffffffffffffffffffffffffffffff1602179055508173ffffffffffffffffffffffffffffffffffffffff168173ffffffffffffffffffffffffffffffffffffffff167f8be0079c531659141344cd1fd0a4f28419497f9722a3daafe3b4186f6b6457e060405160405180910390a35050565b600080fd5b600073ffffffffffffffffffffffffffffffffffffffff82169050919050565b6000620001e782620001ba565b9050919050565b620001f981620001da565b81146200020557600080fd5b50565b6000815190506200021981620001ee565b92915050565b60008060408385031215620002395762000238620001b5565b5b6000620002498582860162000208565b92505060206200025c8582860162000208565b9150509250929050565b61298f80620002766000396000f3fe6080604052600436106101445760003560e01c80637cbc2373116100b6578063c9f1dba81161006f578063c9f1dba8146104b4578063dabf7ec4146104f1578063e1c7392a1461052e578063e36a4ec714610545578063e4d90c1514610570578063f2fde38b146105ad5761014b565b80637cbc23731461036a5780638da5cb5b146103a7578063965334b3146103d2578063abb7bc4a1461040f578063b2016bd41461044c578063c4dbf622146104775761014b565b806335842f741161010857806335842f741461023557806342c371761461025e578063441a3e701461029b5780636190e3a8146102d95780636726bf7c14610316578063715018a6146103535761014b565b806304baacc41461015057806305a27c9d1461018d5780630bf6bf01146101b857806310b9e583146101e15780631b2ef1ca146101f85761014b565b3661014b57005b600080fd5b34801561015c57600080fd5b5061017760048036038101906101729190611e65565b6105d6565b6040516101849190611ea1565b60405180910390f35b34801561019957600080fd5b506101a26105e8565b6040516101af9190611ed7565b60405180910390f35b3480156101c457600080fd5b506101df60048036038101906101da9190611e65565b610628565b005b3480156101ed57600080fd5b506101f66106fb565b005b34801561020457600080fd5b5061021f600480360381019061021a9190611ef2565b610859565b60405161022c9190611ed7565b60405180910390f35b34801561024157600080fd5b5061025c60048036038101906102579190611e65565b610984565b005b34801561026a57600080fd5b5061028560048036038101906102809190611e65565b610c0a565b6040516102929190611ea1565b60405180910390f35b3480156102a757600080fd5b506102c260048036038101906102bd9190611ef2565b610cc0565b6040516102d0929190611f32565b60405180910390f35b3480156102e557600080fd5b5061030060048036038101906102fb9190611fb9565b610cd8565b60405161030d9190611ed7565b60405180910390f35b34801561032257600080fd5b5061033d60048036038101906103389190611ef2565b610e1b565b60405161034a9190611ed7565b60405180910390f35b34801561035f57600080fd5b50610368610ef2565b005b34801561037657600080fd5b50610391600480360381019061038c9190611ef2565b610f7a565b60405161039e9190611ed7565b60405180910390f35b3480156103b357600080fd5b506103bc611263565b6040516103c9919061201b565b60405180910390f35b3480156103de57600080fd5b506103f960048036038101906103f49190611ef2565b61128c565b6040516104069190611ea1565b60405180910390f35b34801561041b57600080fd5b5061043660048036038101906104319190611e65565b6112a0565b6040516104439190611ea1565b60405180910390f35b34801561045857600080fd5b506104616112b2565b60405161046e919061201b565b60405180910390f35b34801561048357600080fd5b5061049e60048036038101906104999190611e65565b6112dc565b6040516104ab9190611ea1565b60405180910390f35b3480156104c057600080fd5b506104db60048036038101906104d69190611e65565b6113f5565b6040516104e89190611ea1565b60405180910390f35b3480156104fd57600080fd5b5061051860048036038101906105139190611e65565b611511565b6040516105259190611ea1565b60405180910390f35b34801561053a57600080fd5b50610543611523565b005b34801561055157600080fd5b5061055a611891565b604051610567919061201b565b60405180910390f35b34801561057c57600080fd5b5061059760048036038101906105929190611e65565b6118bb565b6040516105a49190611ea1565b60405180910390f35b3480156105b957600080fd5b506105d460048036038101906105cf9190612036565b6118cd565b005b60006105e1826119c5565b9050919050565b6000600260159054906101000a900460ff1680156106125750600260149054906101000a900460ff165b156106205760019050610625565b600090505b90565b6000811161066b576040517f08c379a0000000000000000000000000000000000000000000000000000000008152600401610662906120c0565b60405180910390fd5b600160009054906101000a900473ffffffffffffffffffffffffffffffffffffffff1673ffffffffffffffffffffffffffffffffffffffff166342966c68826040518263ffffffff1660e01b81526004016106c69190611ea1565b600060405180830381600087803b1580156106e057600080fd5b505af11580156106f4573d6000803e3d6000fd5b5050505050565b6107036119f6565b73ffffffffffffffffffffffffffffffffffffffff16610721611263565b73ffffffffffffffffffffffffffffffffffffffff1614610777576040517f08c379a000000000000000000000000000000000000000000000000000000000815260040161076e9061212c565b60405180910390fd5b600160009054906101000a900473ffffffffffffffffffffffffffffffffffffffff1673ffffffffffffffffffffffffffffffffffffffff1663986502756040518163ffffffff1660e01b8152600401600060405180830381600087803b1580156107e157600080fd5b505af11580156107f5573d6000803e3d6000fd5b505050506000600260156101000a81548160ff0219169083151502179055503373ffffffffffffffffffffffffffffffffffffffff167f85d30af066e5af845a9622672f06b85f9fac16623c3ae27bc82f59e9443b70dc60405160405180910390a2565b6000600260159054906101000a900460ff1680156108835750600260149054906101000a900460ff165b6108c2576040517f08c379a00000000000000000000000000000000000000000000000000000000081526004016108b990612198565b60405180910390fd5b60026003541415610908576040517f08c379a00000000000000000000000000000000000000000000000000000000081526004016108ff90612204565b60405180910390fd5b6002600381905550600061091d8484336119fe565b90503373ffffffffffffffffffffffffffffffffffffffff167f8bb50bbad61a171c6fa349b88297f9622b09984d0cb849541900b414bb74a38485838660405161096993929190612224565b60405180910390a26001915050600160038190555092915050565b60006109a2662386f26fc10000600161099d919061228a565b6112dc565b9050600081670de0b6b3a7640000846109bb919061228a565b6109c59190612313565b905060006109d2826112a0565b9050600260009054906101000a900473ffffffffffffffffffffffffffffffffffffffff1673ffffffffffffffffffffffffffffffffffffffff166323b872dd3330876040518463ffffffff1660e01b8152600401610a3393929190612344565b602060405180830381600087803b158015610a4d57600080fd5b505af1158015610a61573d6000803e3d6000fd5b505050506040513d601f19601f82011682018060405250810190610a8591906123a7565b610ac4576040517f08c379a0000000000000000000000000000000000000000000000000000000008152600401610abb90612420565b60405180910390fd5b600160009054906101000a900473ffffffffffffffffffffffffffffffffffffffff1673ffffffffffffffffffffffffffffffffffffffff166340c10f1933846040518363ffffffff1660e01b8152600401610b21929190612440565b602060405180830381600087803b158015610b3b57600080fd5b505af1158015610b4f573d6000803e3d6000fd5b505050506040513d601f19601f82011682018060405250810190610b7391906123a7565b610bb2576040517f08c379a0000000000000000000000000000000000000000000000000000000008152600401610ba9906124b5565b60405180910390fd5b3373ffffffffffffffffffffffffffffffffffffffff167f8bb50bbad61a171c6fa349b88297f9622b09984d0cb849541900b414bb74a384838387604051610bfc93929190612224565b60405180910390a250505050565b6000600260159054906101000a900460ff168015610c345750600260149054906101000a900460ff165b610c73576040517f08c379a0000000000000000000000000000000000000000000000000000000008152600401610c6a90612198565b60405180910390fd5b6000610c91662386f26fc100006001610c8c919061228a565b6112dc565b9050600081670de0b6b3a764000085610caa919061228a565b610cb49190612313565b90508092505050919050565b600080610ccd8484611c38565b915091509250929050565b6000600260159054906101000a900460ff168015610d025750600260149054906101000a900460ff165b610d41576040517f08c379a0000000000000000000000000000000000000000000000000000000008152600401610d3890612198565b60405180910390fd5b60026003541415610d87576040517f08c379a0000000000000000000000000000000000000000000000000000000008152600401610d7e90612204565b60405180910390fd5b60026003819055506000610d9c8585856119fe565b90508273ffffffffffffffffffffffffffffffffffffffff163373ffffffffffffffffffffffffffffffffffffffff167f61e2242687b56628bc0e14d72fc3cb62ddc508c2096a2b86e36ca745e1164af7878488604051610dff93929190612224565b60405180910390a3600191505060016003819055509392505050565b6000600260159054906101000a900460ff168015610e455750600260149054906101000a900460ff165b610e84576040517f08c379a0000000000000000000000000000000000000000000000000000000008152600401610e7b90612198565b60405180910390fd5b60026003541415610eca576040517f08c379a0000000000000000000000000000000000000000000000000000000008152600401610ec190612204565b60405180910390fd5b60026003819055506000610edd846113f5565b90506001915050600160038190555092915050565b610efa6119f6565b73ffffffffffffffffffffffffffffffffffffffff16610f18611263565b73ffffffffffffffffffffffffffffffffffffffff1614610f6e576040517f08c379a0000000000000000000000000000000000000000000000000000000008152600401610f659061212c565b60405180910390fd5b610f786000611ca1565b565b6000600260159054906101000a900460ff168015610fa45750600260149054906101000a900460ff165b610fe3576040517f08c379a0000000000000000000000000000000000000000000000000000000008152600401610fda90612198565b60405180910390fd5b60026003541415611029576040517f08c379a000000000000000000000000000000000000000000000000000000000815260040161102090612204565b60405180910390fd5b6002600381905550600061103c846113f5565b905082811015611081576040517f08c379a000000000000000000000000000000000000000000000000000000000815260040161107890612521565b60405180910390fd5b600160009054906101000a900473ffffffffffffffffffffffffffffffffffffffff1673ffffffffffffffffffffffffffffffffffffffff166379cc679033866040518363ffffffff1660e01b81526004016110de929190612440565b600060405180830381600087803b1580156110f857600080fd5b505af115801561110c573d6000803e3d6000fd5b50505050600260009054906101000a900473ffffffffffffffffffffffffffffffffffffffff1673ffffffffffffffffffffffffffffffffffffffff1663a9059cbb33836040518363ffffffff1660e01b815260040161116d929190612440565b602060405180830381600087803b15801561118757600080fd5b505af115801561119b573d6000803e3d6000fd5b505050506040513d601f19601f820116820180604052508101906111bf91906123a7565b6111fe576040517f08c379a00000000000000000000000000000000000000000000000000000000081526004016111f590612420565b60405180910390fd5b3373ffffffffffffffffffffffffffffffffffffffff167f9ed992203b5a631f0a9d0b8341fde3c68a998a2ac413d72a34213bd77d4b181485838660405161124893929190612224565b60405180910390a26001915050600160038190555092915050565b60008060009054906101000a900473ffffffffffffffffffffffffffffffffffffffff16905090565b60006112988383611d65565b905092915050565b60006112ab82611d9b565b9050919050565b6000600260009054906101000a900473ffffffffffffffffffffffffffffffffffffffff16905090565b6000600260159054906101000a900460ff1680156113065750600260149054906101000a900460ff165b611345576040517f08c379a000000000000000000000000000000000000000000000000000000000815260040161133c90612198565b60405180910390fd5b6113ee82600160009054906101000a900473ffffffffffffffffffffffffffffffffffffffff1673ffffffffffffffffffffffffffffffffffffffff166318160ddd6040518163ffffffff1660e01b815260040160206040518083038186803b1580156113b157600080fd5b505afa1580156113c5573d6000803e3d6000fd5b505050506040513d601f19601f820116820180604052508101906113e99190612556565b611d65565b9050919050565b6000600260159054906101000a900460ff16801561141f5750600260149054906101000a900460ff165b61145e576040517f08c379a000000000000000000000000000000000000000000000000000000000815260040161145590612198565b60405180910390fd5b61150782600160009054906101000a900473ffffffffffffffffffffffffffffffffffffffff1673ffffffffffffffffffffffffffffffffffffffff166318160ddd6040518163ffffffff1660e01b815260040160206040518083038186803b1580156114ca57600080fd5b505afa1580156114de573d6000803e3d6000fd5b505050506040513d601f19601f820116820180604052508101906115029190612556565b611c38565b5080915050919050565b600061151c82611daf565b9050919050565b600260149054906101000a900460ff1615611573576040517f08c379a000000000000000000000000000000000000000000000000000000000815260040161156a906125cf565b60405180910390fd5b600160009054906101000a900473ffffffffffffffffffffffffffffffffffffffff1673ffffffffffffffffffffffffffffffffffffffff1663aa271e1a306040518263ffffffff1660e01b81526004016115ce919061201b565b60206040518083038186803b1580156115e657600080fd5b505afa1580156115fa573d6000803e3d6000fd5b505050506040513d601f19601f8201168201806040525081019061161e91906123a7565b61165d576040517f08c379a00000000000000000000000000000000000000000000000000000000081526004016116549061263b565b60405180910390fd5b6000600160009054906101000a900473ffffffffffffffffffffffffffffffffffffffff1673ffffffffffffffffffffffffffffffffffffffff166318160ddd6040518163ffffffff1660e01b815260040160206040518083038186803b1580156116c757600080fd5b505afa1580156116db573d6000803e3d6000fd5b505050506040513d601f19601f820116820180604052508101906116ff9190612556565b9050662386f26fc100006303b9aca0611718919061228a565b81101561175a576040517f08c379a0000000000000000000000000000000000000000000000000000000008152600401611751906126a7565b60405180910390fd5b600061176582611d9b565b9050600260009054906101000a900473ffffffffffffffffffffffffffffffffffffffff1673ffffffffffffffffffffffffffffffffffffffff166323b872dd3330846040518463ffffffff1660e01b81526004016117c693929190612344565b602060405180830381600087803b1580156117e057600080fd5b505af11580156117f4573d6000803e3d6000fd5b505050506040513d601f19601f8201168201806040525081019061181891906123a7565b611857576040517f08c379a000000000000000000000000000000000000000000000000000000000815260040161184e90612739565b60405180910390fd5b6001600260156101000a81548160ff0219169083151502179055506001600260146101000a81548160ff0219169083151502179055505050565b6000600160009054906101000a900473ffffffffffffffffffffffffffffffffffffffff16905090565b60006118c682611e0a565b9050919050565b6118d56119f6565b73ffffffffffffffffffffffffffffffffffffffff166118f3611263565b73ffffffffffffffffffffffffffffffffffffffff1614611949576040517f08c379a00000000000000000000000000000000000000000000000000000000081526004016119409061212c565b60405180910390fd5b600073ffffffffffffffffffffffffffffffffffffffff168173ffffffffffffffffffffffffffffffffffffffff1614156119b9576040517f08c379a00000000000000000000000000000000000000000000000000000000081526004016119b0906127cb565b60405180910390fd5b6119c281611ca1565b50565b60006119d082611e0a565b6119e56001846119e091906127eb565b611e0a565b6119ef9190612841565b9050919050565b600033905090565b600080611a0a856112dc565b905083811115611a4f576040517f08c379a0000000000000000000000000000000000000000000000000000000008152600401611a46906128c1565b60405180910390fd5b600260009054906101000a900473ffffffffffffffffffffffffffffffffffffffff1673ffffffffffffffffffffffffffffffffffffffff166323b872dd3330846040518463ffffffff1660e01b8152600401611aae93929190612344565b602060405180830381600087803b158015611ac857600080fd5b505af1158015611adc573d6000803e3d6000fd5b505050506040513d601f19601f82011682018060405250810190611b0091906123a7565b611b3f576040517f08c379a0000000000000000000000000000000000000000000000000000000008152600401611b3690612420565b60405180910390fd5b600160009054906101000a900473ffffffffffffffffffffffffffffffffffffffff1673ffffffffffffffffffffffffffffffffffffffff166340c10f1984876040518363ffffffff1660e01b8152600401611b9c929190612440565b602060405180830381600087803b158015611bb657600080fd5b505af1158015611bca573d6000803e3d6000fd5b505050506040513d601f19601f82011682018060405250810190611bee91906123a7565b611c2d576040517f08c379a0000000000000000000000000000000000000000000000000000000008152600401611c24906124b5565b60405180910390fd5b809150509392505050565b60008060008484611c499190612841565b11611c5757611c566128e1565b5b6000611c6d8585611c689190612841565b611e0a565b611c7685611e0a565b611c809190612841565b905060008582611c909190612313565b905081819350935050509250929050565b60008060009054906101000a900473ffffffffffffffffffffffffffffffffffffffff169050816000806101000a81548173ffffffffffffffffffffffffffffffffffffffff021916908373ffffffffffffffffffffffffffffffffffffffff1602179055508173ffffffffffffffffffffffffffffffffffffffff168173ffffffffffffffffffffffffffffffffffffffff167f8be0079c531659141344cd1fd0a4f28419497f9722a3daafe3b4186f6b6457e060405160405180910390a35050565b600080611d7183611e0a565b611d858585611d8091906127eb565b611e0a565b611d8f9190612841565b90508091505092915050565b6000611da8826000611d65565b9050919050565b600080600190505b60058111611e0157662386f26fc100006303b9aca0611dd6919061228a565b8384611de2919061228a565b611dec9190612313565b92508080611df990612910565b915050611db7565b50819050919050565b6000611e1582611daf565b82611e2091906127eb565b9150819050919050565b600080fd5b6000819050919050565b611e4281611e2f565b8114611e4d57600080fd5b50565b600081359050611e5f81611e39565b92915050565b600060208284031215611e7b57611e7a611e2a565b5b6000611e8984828501611e50565b91505092915050565b611e9b81611e2f565b82525050565b6000602082019050611eb66000830184611e92565b92915050565b60008115159050919050565b611ed181611ebc565b82525050565b6000602082019050611eec6000830184611ec8565b92915050565b60008060408385031215611f0957611f08611e2a565b5b6000611f1785828601611e50565b9250506020611f2885828601611e50565b9150509250929050565b6000604082019050611f476000830185611e92565b611f546020830184611e92565b9392505050565b600073ffffffffffffffffffffffffffffffffffffffff82169050919050565b6000611f8682611f5b565b9050919050565b611f9681611f7b565b8114611fa157600080fd5b50565b600081359050611fb381611f8d565b92915050565b600080600060608486031215611fd257611fd1611e2a565b5b6000611fe086828701611e50565b9350506020611ff186828701611e50565b925050604061200286828701611fa4565b9150509250925092565b61201581611f7b565b82525050565b6000602082019050612030600083018461200c565b92915050565b60006020828403121561204c5761204b611e2a565b5b600061205a84828501611fa4565b91505092915050565b600082825260208201905092915050565b7f426f6e64696e6743757276653a20696e76616c69642076616c75650000000000600082015250565b60006120aa601b83612063565b91506120b582612074565b602082019050919050565b600060208201905081810360008301526120d98161209d565b9050919050565b7f4f776e61626c653a2063616c6c6572206973206e6f7420746865206f776e6572600082015250565b6000612116602083612063565b9150612121826120e0565b602082019050919050565b6000602082019050818103600083015261214581612109565b9050919050565b7f437572766520696e616374697665000000000000000000000000000000000000600082015250565b6000612182600e83612063565b915061218d8261214c565b602082019050919050565b600060208201905081810360008301526121b181612175565b9050919050565b7f5265656e7472616e637947756172643a207265656e7472616e742063616c6c00600082015250565b60006121ee601f83612063565b91506121f9826121b8565b602082019050919050565b6000602082019050818103600083015261221d816121e1565b9050919050565b60006060820190506122396000830186611e92565b6122466020830185611e92565b6122536040830184611e92565b949350505050565b7f4e487b7100000000000000000000000000000000000000000000000000000000600052601160045260246000fd5b600061229582611e2f565b91506122a083611e2f565b9250817fffffffffffffffffffffffffffffffffffffffffffffffffffffffffffffffff04831182151516156122d9576122d861225b565b5b828202905092915050565b7f4e487b7100000000000000000000000000000000000000000000000000000000600052601260045260246000fd5b600061231e82611e2f565b915061232983611e2f565b925082612339576123386122e4565b5b828204905092915050565b6000606082019050612359600083018661200c565b612366602083018561200c565b6123736040830184611e92565b949350505050565b61238481611ebc565b811461238f57600080fd5b50565b6000815190506123a18161237b565b92915050565b6000602082840312156123bd576123bc611e2a565b5b60006123cb84828501612392565b91505092915050565b7f5472616e7366657272696e6720636f6c6c61746572616c206661696c65640000600082015250565b600061240a601e83612063565b9150612415826123d4565b602082019050919050565b60006020820190508181036000830152612439816123fd565b9050919050565b6000604082019050612455600083018561200c565b6124626020830184611e92565b9392505050565b7f4d696e74696e6720746f6b656e73206661696c65640000000000000000000000600082015250565b600061249f601583612063565b91506124aa82612469565b602082019050919050565b600060208201905081810360008301526124ce81612492565b9050919050565b7f52657761726420756e646572206d696e2073656c6c0000000000000000000000600082015250565b600061250b601583612063565b9150612516826124d5565b602082019050919050565b6000602082019050818103600083015261253a816124fe565b9050919050565b60008151905061255081611e39565b92915050565b60006020828403121561256c5761256b611e2a565b5b600061257a84828501612541565b91505092915050565b7f437572766520697320696e697400000000000000000000000000000000000000600082015250565b60006125b9600d83612063565b91506125c482612583565b602082019050919050565b600060208201905081810360008301526125e8816125ac565b9050919050565b7f4375727665206973206e6f74206d696e74657200000000000000000000000000600082015250565b6000612625601383612063565b9150612630826125ef565b602082019050919050565b6000602082019050818103600083015261265481612618565b9050919050565b7f4375727665206571756174696f6e207265717569726573207072652d6d696e74600082015250565b6000612691602083612063565b915061269c8261265b565b602082019050919050565b600060208201905081810360008301526126c081612684565b9050919050565b7f4661696c656420746f20636f6c6c61746572616c697a6564207468652063757260008201527f7665000000000000000000000000000000000000000000000000000000000000602082015250565b6000612723602283612063565b915061272e826126c7565b604082019050919050565b6000602082019050818103600083015261275281612716565b9050919050565b7f4f776e61626c653a206e6577206f776e657220697320746865207a65726f206160008201527f6464726573730000000000000000000000000000000000000000000000000000602082015250565b60006127b5602683612063565b91506127c082612759565b604082019050919050565b600060208201905081810360008301526127e4816127a8565b9050919050565b60006127f682611e2f565b915061280183611e2f565b9250827fffffffffffffffffffffffffffffffffffffffffffffffffffffffffffffffff038211156128365761283561225b565b5b828201905092915050565b600061284c82611e2f565b915061285783611e2f565b92508282101561286a5761286961225b565b5b828203905092915050565b7f50726963652065786365656473206d6178207370656e64000000000000000000600082015250565b60006128ab601783612063565b91506128b682612875565b602082019050919050565b600060208201905081810360008301526128da8161289e565b9050919050565b7f4e487b7100000000000000000000000000000000000000000000000000000000600052600160045260246000fd5b600061291b82611e2f565b91507fffffffffffffffffffffffffffffffffffffffffffffffffffffffffffffffff82141561294e5761294d61225b565b5b60018201905091905056fea2646970667358221220dd482434c153d85606b61f5ce9a8c4ecf8321cf5dbfb17325bf0e6d54873153064736f6c63430008090033",
  "linkReferences": {},
  "deployedLinkReferences": {}
}